{
  "_format": "hh-sol-artifact-1",
  "contractName": "CertificadoNFT",
  "sourceName": "contracts/CertificadoNFT.sol",
  "abi": [
    {
      "inputs": [],
      "stateMutability": "nonpayable",
      "type": "constructor"
    },
    {
      "anonymous": false,
      "inputs": [
        {
          "indexed": true,
          "internalType": "address",
          "name": "owner",
          "type": "address"
        },
        {
          "indexed": true,
          "internalType": "address",
          "name": "approved",
          "type": "address"
        },
        {
          "indexed": true,
          "internalType": "uint256",
          "name": "tokenId",
          "type": "uint256"
        }
      ],
      "name": "Approval",
      "type": "event"
    },
    {
      "anonymous": false,
      "inputs": [
        {
          "indexed": true,
          "internalType": "address",
          "name": "owner",
          "type": "address"
        },
        {
          "indexed": true,
          "internalType": "address",
          "name": "operator",
          "type": "address"
        },
        {
          "indexed": false,
          "internalType": "bool",
          "name": "approved",
          "type": "bool"
        }
      ],
      "name": "ApprovalForAll",
      "type": "event"
    },
    {
      "anonymous": false,
      "inputs": [
        {
          "indexed": true,
          "internalType": "address",
          "name": "recipient",
          "type": "address"
        },
        {
          "indexed": true,
          "internalType": "uint256",
          "name": "tokenId",
          "type": "uint256"
        },
        {
          "indexed": false,
          "internalType": "uint256",
          "name": "extracurricularHoursCompleted",
          "type": "uint256"
        },
        {
          "indexed": false,
          "internalType": "string",
          "name": "activityName",
          "type": "string"
        }
      ],
      "name": "CertificateMinted",
      "type": "event"
    },
    {
      "anonymous": false,
      "inputs": [
        {
          "indexed": true,
          "internalType": "address",
          "name": "previousOwner",
          "type": "address"
        },
        {
          "indexed": true,
          "internalType": "address",
          "name": "newOwner",
          "type": "address"
        }
      ],
      "name": "OwnershipTransferred",
      "type": "event"
    },
    {
      "anonymous": false,
      "inputs": [
        {
          "indexed": true,
          "internalType": "address",
          "name": "from",
          "type": "address"
        },
        {
          "indexed": true,
          "internalType": "address",
          "name": "to",
          "type": "address"
        },
        {
          "indexed": true,
          "internalType": "uint256",
          "name": "tokenId",
          "type": "uint256"
        }
      ],
      "name": "Transfer",
      "type": "event"
    },
    {
      "inputs": [
        {
          "internalType": "address",
          "name": "to",
          "type": "address"
        },
        {
          "internalType": "uint256",
          "name": "tokenId",
          "type": "uint256"
        }
      ],
      "name": "approve",
      "outputs": [],
      "stateMutability": "nonpayable",
      "type": "function"
    },
    {
      "inputs": [
        {
          "internalType": "address",
          "name": "owner",
          "type": "address"
        }
      ],
      "name": "balanceOf",
      "outputs": [
        {
          "internalType": "uint256",
          "name": "",
          "type": "uint256"
        }
      ],
      "stateMutability": "view",
      "type": "function"
    },
    {
      "inputs": [
        {
          "internalType": "uint256",
          "name": "",
          "type": "uint256"
        }
      ],
      "name": "certificateDetails",
      "outputs": [
        {
          "internalType": "uint256",
          "name": "extracurricularHoursCompleted",
          "type": "uint256"
        },
        {
          "internalType": "string",
          "name": "activityName",
          "type": "string"
        },
        {
          "internalType": "string",
          "name": "description",
          "type": "string"
        },
        {
          "internalType": "uint256",
          "name": "issueDate",
          "type": "uint256"
        },
        {
          "internalType": "string",
          "name": "ipfsHash",
          "type": "string"
        }
      ],
      "stateMutability": "view",
      "type": "function"
    },
    {
      "inputs": [],
      "name": "costPerExtraCurricularHour",
      "outputs": [
        {
          "internalType": "uint256",
          "name": "",
          "type": "uint256"
        }
      ],
      "stateMutability": "view",
      "type": "function"
    },
    {
      "inputs": [
        {
          "internalType": "uint256",
          "name": "tokenId",
          "type": "uint256"
        }
      ],
      "name": "getApproved",
      "outputs": [
        {
          "internalType": "address",
          "name": "",
          "type": "address"
        }
      ],
      "stateMutability": "view",
      "type": "function"
    },
    {
      "inputs": [
        {
          "internalType": "address",
          "name": "owner",
          "type": "address"
        },
        {
          "internalType": "address",
          "name": "operator",
          "type": "address"
        }
      ],
      "name": "isApprovedForAll",
      "outputs": [
        {
          "internalType": "bool",
          "name": "",
          "type": "bool"
        }
      ],
      "stateMutability": "view",
      "type": "function"
    },
    {
      "inputs": [
        {
          "internalType": "address",
          "name": "recipient",
          "type": "address"
        },
        {
          "internalType": "uint256",
          "name": "extracurricularHours",
          "type": "uint256"
        },
        {
          "internalType": "string",
          "name": "activity",
          "type": "string"
        },
        {
          "internalType": "string",
          "name": "description",
          "type": "string"
        },
        {
          "internalType": "string",
          "name": "ipfsHash",
          "type": "string"
        }
      ],
      "name": "mintCertificate",
      "outputs": [],
      "stateMutability": "nonpayable",
      "type": "function"
    },
    {
      "inputs": [],
      "name": "name",
      "outputs": [
        {
          "internalType": "string",
          "name": "",
          "type": "string"
        }
      ],
      "stateMutability": "view",
      "type": "function"
    },
    {
      "inputs": [],
      "name": "owner",
      "outputs": [
        {
          "internalType": "address",
          "name": "",
          "type": "address"
        }
      ],
      "stateMutability": "view",
      "type": "function"
    },
    {
      "inputs": [
        {
          "internalType": "uint256",
          "name": "tokenId",
          "type": "uint256"
        }
      ],
      "name": "ownerOf",
      "outputs": [
        {
          "internalType": "address",
          "name": "",
          "type": "address"
        }
      ],
      "stateMutability": "view",
      "type": "function"
    },
    {
      "inputs": [],
      "name": "renounceOwnership",
      "outputs": [],
      "stateMutability": "nonpayable",
      "type": "function"
    },
    {
      "inputs": [
        {
          "internalType": "address",
          "name": "from",
          "type": "address"
        },
        {
          "internalType": "address",
          "name": "to",
          "type": "address"
        },
        {
          "internalType": "uint256",
          "name": "tokenId",
          "type": "uint256"
        }
      ],
      "name": "safeTransferFrom",
      "outputs": [],
      "stateMutability": "nonpayable",
      "type": "function"
    },
    {
      "inputs": [
        {
          "internalType": "address",
          "name": "from",
          "type": "address"
        },
        {
          "internalType": "address",
          "name": "to",
          "type": "address"
        },
        {
          "internalType": "uint256",
          "name": "tokenId",
          "type": "uint256"
        },
        {
          "internalType": "bytes",
          "name": "data",
          "type": "bytes"
        }
      ],
      "name": "safeTransferFrom",
      "outputs": [],
      "stateMutability": "nonpayable",
      "type": "function"
    },
    {
      "inputs": [
        {
          "internalType": "address",
          "name": "operator",
          "type": "address"
        },
        {
          "internalType": "bool",
          "name": "approved",
          "type": "bool"
        }
      ],
      "name": "setApprovalForAll",
      "outputs": [],
      "stateMutability": "nonpayable",
      "type": "function"
    },
    {
      "inputs": [
        {
          "internalType": "uint256",
          "name": "newCost",
          "type": "uint256"
        }
      ],
      "name": "setCostPerExtraCurricularHour",
      "outputs": [],
      "stateMutability": "nonpayable",
      "type": "function"
    },
    {
      "inputs": [
        {
          "internalType": "bytes4",
          "name": "interfaceId",
          "type": "bytes4"
        }
      ],
      "name": "supportsInterface",
      "outputs": [
        {
          "internalType": "bool",
          "name": "",
          "type": "bool"
        }
      ],
      "stateMutability": "view",
      "type": "function"
    },
    {
      "inputs": [],
      "name": "symbol",
      "outputs": [
        {
          "internalType": "string",
          "name": "",
          "type": "string"
        }
      ],
      "stateMutability": "view",
      "type": "function"
    },
    {
      "inputs": [
        {
          "internalType": "uint256",
          "name": "tokenId",
          "type": "uint256"
        }
      ],
      "name": "tokenURI",
      "outputs": [
        {
          "internalType": "string",
          "name": "",
          "type": "string"
        }
      ],
      "stateMutability": "view",
      "type": "function"
    },
    {
      "inputs": [
        {
          "internalType": "address",
          "name": "from",
          "type": "address"
        },
        {
          "internalType": "address",
          "name": "to",
          "type": "address"
        },
        {
          "internalType": "uint256",
          "name": "tokenId",
          "type": "uint256"
        }
      ],
      "name": "transferFrom",
      "outputs": [],
      "stateMutability": "nonpayable",
      "type": "function"
    },
    {
      "inputs": [
        {
          "internalType": "address",
          "name": "newOwner",
          "type": "address"
        }
      ],
      "name": "transferOwnership",
      "outputs": [],
      "stateMutability": "nonpayable",
      "type": "function"
    },
    {
      "inputs": [],
      "name": "withdrawERC20Tokens",
      "outputs": [],
      "stateMutability": "nonpayable",
      "type": "function"
    }
  ],
  "bytecode": "0x60a06040523480156200001157600080fd5b506040518060400160405280601381526020017f555350204e4654204365727469666963617465000000000000000000000000008152506040518060400160405280600781526020017f5553502d4e46540000000000000000000000000000000000000000000000000081525081600090816200008f91906200046f565b508060019081620000a191906200046f565b505050620000c4620000b86200012760201b60201c565b6200012f60201b60201c565b6000732a23b5ac7c03312a6ca0dccfc2609aebe7634a9e90508073ffffffffffffffffffffffffffffffffffffffff1660808173ffffffffffffffffffffffffffffffffffffffff1681525050670de0b6b3a76400006009819055505062000556565b600033905090565b6000600660009054906101000a900473ffffffffffffffffffffffffffffffffffffffff16905081600660006101000a81548173ffffffffffffffffffffffffffffffffffffffff021916908373ffffffffffffffffffffffffffffffffffffffff1602179055508173ffffffffffffffffffffffffffffffffffffffff168173ffffffffffffffffffffffffffffffffffffffff167f8be0079c531659141344cd1fd0a4f28419497f9722a3daafe3b4186f6b6457e060405160405180910390a35050565b600081519050919050565b7f4e487b7100000000000000000000000000000000000000000000000000000000600052604160045260246000fd5b7f4e487b7100000000000000000000000000000000000000000000000000000000600052602260045260246000fd5b600060028204905060018216806200027757607f821691505b6020821081036200028d576200028c6200022f565b5b50919050565b60008190508160005260206000209050919050565b60006020601f8301049050919050565b600082821b905092915050565b600060088302620002f77fffffffffffffffffffffffffffffffffffffffffffffffffffffffffffffffff82620002b8565b620003038683620002b8565b95508019841693508086168417925050509392505050565b6000819050919050565b6000819050919050565b6000620003506200034a62000344846200031b565b62000325565b6200031b565b9050919050565b6000819050919050565b6200036c836200032f565b620003846200037b8262000357565b848454620002c5565b825550505050565b600090565b6200039b6200038c565b620003a881848462000361565b505050565b5b81811015620003d057620003c460008262000391565b600181019050620003ae565b5050565b601f8211156200041f57620003e98162000293565b620003f484620002a8565b8101602085101562000404578190505b6200041c6200041385620002a8565b830182620003ad565b50505b505050565b600082821c905092915050565b6000620004446000198460080262000424565b1980831691505092915050565b60006200045f838362000431565b9150826002028217905092915050565b6200047a82620001f5565b67ffffffffffffffff81111562000496576200049562000200565b5b620004a282546200025e565b620004af828285620003d4565b600060209050601f831160018114620004e75760008415620004d2578287015190505b620004de858262000451565b8655506200054e565b601f198416620004f78662000293565b60005b828110156200052157848901518255600182019150602085019450602081019050620004fa565b868310156200054157848901516200053d601f89168262000431565b8355505b6001600288020188555050505b505050505050565b608051613a81620005876000396000818161078e0152818161086d01528181610f6f01526110500152613a816000f3fe608060405234801561001057600080fd5b50600436106101375760003560e01c806370a08231116100b8578063a22cb4651161007c578063a22cb4651461032c578063b88d4fde14610348578063c87b56dd14610364578063d4c92f9814610394578063e985e9c5146103b0578063f2fde38b146103e057610137565b806370a0823114610298578063715018a6146102c85780638da5cb5b146102d2578063911d6877146102f057806395d89b411461030e57610137565b806326f728b4116100ff57806326f728b4146101f257806333c946da1461020e57806342842e0e1461021857806344128c87146102345780636352211e1461026857610137565b806301ffc9a71461013c57806306fdde031461016c578063081812fc1461018a578063095ea7b3146101ba57806323b872dd146101d6575b600080fd5b6101566004803603810190610151919061217b565b6103fc565b60405161016391906121c3565b60405180910390f35b6101746104de565b604051610181919061226e565b60405180910390f35b6101a4600480360381019061019f91906122c6565b610570565b6040516101b19190612334565b60405180910390f35b6101d460048036038101906101cf919061237b565b6105b6565b005b6101f060048036038101906101eb91906123bb565b6106cd565b005b61020c600480360381019061020791906122c6565b61072d565b005b610216610782565b005b610232600480360381019061022d91906123bb565b610914565b005b61024e600480360381019061024991906122c6565b610934565b60405161025f95949392919061241d565b60405180910390f35b610282600480360381019061027d91906122c6565b610b02565b60405161028f9190612334565b60405180910390f35b6102b260048036038101906102ad9190612485565b610b88565b6040516102bf91906124b2565b60405180910390f35b6102d0610c3f565b005b6102da610c53565b6040516102e79190612334565b60405180910390f35b6102f8610c7d565b60405161030591906124b2565b60405180910390f35b610316610c83565b604051610323919061226e565b60405180910390f35b610346600480360381019061034191906124f9565b610d15565b005b610362600480360381019061035d919061266e565b610d2b565b005b61037e600480360381019061037991906122c6565b610d8d565b60405161038b919061226e565b60405180910390f35b6103ae60048036038101906103a99190612751565b610e13565b005b6103ca60048036038101906103c5919061282d565b61131e565b6040516103d791906121c3565b60405180910390f35b6103fa60048036038101906103f59190612485565b6113b2565b005b60007f80ac58cd000000000000000000000000000000000000000000000000000000007bffffffffffffffffffffffffffffffffffffffffffffffffffffffff1916827bffffffffffffffffffffffffffffffffffffffffffffffffffffffff191614806104c757507f5b5e139f000000000000000000000000000000000000000000000000000000007bffffffffffffffffffffffffffffffffffffffffffffffffffffffff1916827bffffffffffffffffffffffffffffffffffffffffffffffffffffffff1916145b806104d757506104d682611435565b5b9050919050565b6060600080546104ed9061289c565b80601f01602080910402602001604051908101604052809291908181526020018280546105199061289c565b80156105665780601f1061053b57610100808354040283529160200191610566565b820191906000526020600020905b81548152906001019060200180831161054957829003601f168201915b5050505050905090565b600061057b8261149f565b6004600083815260200190815260200160002060009054906101000a900473ffffffffffffffffffffffffffffffffffffffff169050919050565b60006105c182610b02565b90508073ffffffffffffffffffffffffffffffffffffffff168373ffffffffffffffffffffffffffffffffffffffff1603610631576040517f08c379a00000000000000000000000000000000000000000000000000000000081526004016106289061293f565b60405180910390fd5b8073ffffffffffffffffffffffffffffffffffffffff166106506114ea565b73ffffffffffffffffffffffffffffffffffffffff16148061067f575061067e816106796114ea565b61131e565b5b6106be576040517f08c379a00000000000000000000000000000000000000000000000000000000081526004016106b5906129d1565b60405180910390fd5b6106c883836114f2565b505050565b6106de6106d86114ea565b826115ab565b61071d576040517f08c379a000000000000000000000000000000000000000000000000000000000815260040161071490612a63565b60405180910390fd5b610728838383611640565b505050565b610735611939565b60008111610778576040517f08c379a000000000000000000000000000000000000000000000000000000000815260040161076f90612af5565b60405180910390fd5b8060098190555050565b61078a611939565b60007f000000000000000000000000000000000000000000000000000000000000000073ffffffffffffffffffffffffffffffffffffffff166370a08231306040518263ffffffff1660e01b81526004016107e59190612334565b602060405180830381865afa158015610802573d6000803e3d6000fd5b505050506040513d601f19601f820116820180604052508101906108269190612b2a565b90506000811161086b576040517f08c379a000000000000000000000000000000000000000000000000000000000815260040161086290612ba3565b60405180910390fd5b7f000000000000000000000000000000000000000000000000000000000000000073ffffffffffffffffffffffffffffffffffffffff1663a9059cbb6108af610c53565b836040518363ffffffff1660e01b81526004016108cd929190612bc3565b6020604051808303816000875af11580156108ec573d6000803e3d6000fd5b505050506040513d601f19601f820116820180604052508101906109109190612c01565b5050565b61092f83838360405180602001604052806000815250610d2b565b505050565b600860205280600052604060002060009150905080600001549080600101805461095d9061289c565b80601f01602080910402602001604051908101604052809291908181526020018280546109899061289c565b80156109d65780601f106109ab576101008083540402835291602001916109d6565b820191906000526020600020905b8154815290600101906020018083116109b957829003601f168201915b5050505050908060020180546109eb9061289c565b80601f0160208091040260200160405190810160405280929190818152602001828054610a179061289c565b8015610a645780601f10610a3957610100808354040283529160200191610a64565b820191906000526020600020905b815481529060010190602001808311610a4757829003601f168201915b505050505090806003015490806004018054610a7f9061289c565b80601f0160208091040260200160405190810160405280929190818152602001828054610aab9061289c565b8015610af85780601f10610acd57610100808354040283529160200191610af8565b820191906000526020600020905b815481529060010190602001808311610adb57829003601f168201915b5050505050905085565b600080610b0e836119b7565b9050600073ffffffffffffffffffffffffffffffffffffffff168173ffffffffffffffffffffffffffffffffffffffff1603610b7f576040517f08c379a0000000000000000000000000000000000000000000000000000000008152600401610b7690612c7a565b60405180910390fd5b80915050919050565b60008073ffffffffffffffffffffffffffffffffffffffff168273ffffffffffffffffffffffffffffffffffffffff1603610bf8576040517f08c379a0000000000000000000000000000000000000000000000000000000008152600401610bef90612d0c565b60405180910390fd5b600360008373ffffffffffffffffffffffffffffffffffffffff1673ffffffffffffffffffffffffffffffffffffffff168152602001908152602001600020549050919050565b610c47611939565b610c5160006119f4565b565b6000600660009054906101000a900473ffffffffffffffffffffffffffffffffffffffff16905090565b60095481565b606060018054610c929061289c565b80601f0160208091040260200160405190810160405280929190818152602001828054610cbe9061289c565b8015610d0b5780601f10610ce057610100808354040283529160200191610d0b565b820191906000526020600020905b815481529060010190602001808311610cee57829003601f168201915b5050505050905090565b610d27610d206114ea565b8383611aba565b5050565b610d3c610d366114ea565b836115ab565b610d7b576040517f08c379a0000000000000000000000000000000000000000000000000000000008152600401610d7290612a63565b60405180910390fd5b610d8784848484611c26565b50505050565b6060610d9882611c82565b610dd7576040517f08c379a0000000000000000000000000000000000000000000000000000000008152600401610dce90612d78565b60405180910390fd5b60086000838152602001908152602001600020600401604051602001610dfd9190612e87565b6040516020818303038152906040529050919050565b610e1b611939565b600073ffffffffffffffffffffffffffffffffffffffff168873ffffffffffffffffffffffffffffffffffffffff1603610e8a576040517f08c379a0000000000000000000000000000000000000000000000000000000008152600401610e8190612f1b565b60405180910390fd5b60008711610ecd576040517f08c379a0000000000000000000000000000000000000000000000000000000008152600401610ec490612fad565b60405180910390fd5b60008686905011610f13576040517f08c379a0000000000000000000000000000000000000000000000000000000008152600401610f0a9061303f565b60405180910390fd5b60008282905011610f59576040517f08c379a0000000000000000000000000000000000000000000000000000000008152600401610f50906130ab565b60405180910390fd5b600060095488610f6991906130fa565b905060007f000000000000000000000000000000000000000000000000000000000000000073ffffffffffffffffffffffffffffffffffffffff166370a08231306040518263ffffffff1660e01b8152600401610fc69190612334565b602060405180830381865afa158015610fe3573d6000803e3d6000fd5b505050506040513d601f19601f820116820180604052508101906110079190612b2a565b90508181101561104c576040517f08c379a0000000000000000000000000000000000000000000000000000000008152600401611043906131ae565b60405180910390fd5b60007f000000000000000000000000000000000000000000000000000000000000000073ffffffffffffffffffffffffffffffffffffffff1663a9059cbb611092610c53565b856040518363ffffffff1660e01b81526004016110b0929190612bc3565b6020604051808303816000875af11580156110cf573d6000803e3d6000fd5b505050506040513d601f19601f820116820180604052508101906110f39190612c01565b905080611135576040517f08c379a000000000000000000000000000000000000000000000000000000000815260040161112c90613240565b60405180910390fd5b6007600081548092919061114890613260565b91905055506000600754905061115e8c82611cc3565b6040518060a001604052808c81526020018b8b8080601f016020809104026020016040519081016040528093929190818152602001838380828437600081840152601f19601f82011690508083019250505050505050815260200189898080601f016020809104026020016040519081016040528093929190818152602001838380828437600081840152601f19601f82011690508083019250505050505050815260200142815260200187878080601f016020809104026020016040519081016040528093929190818152602001838380828437600081840152601f19601f8201169050808301925050505050505081525060086000838152602001908152602001600020600082015181600001556020820151816001019081611283919061343f565b506040820151816002019081611299919061343f565b506060820151816003015560808201518160040190816112b9919061343f565b50905050808c73ffffffffffffffffffffffffffffffffffffffff167fc54c7ef12eff8d20c7f387ef3dd8fb555d40e92c7faa7a200d3c5a4da6e2a7ed8d8d8d6040516113089392919061353e565b60405180910390a3505050505050505050505050565b6000600560008473ffffffffffffffffffffffffffffffffffffffff1673ffffffffffffffffffffffffffffffffffffffff16815260200190815260200160002060008373ffffffffffffffffffffffffffffffffffffffff1673ffffffffffffffffffffffffffffffffffffffff16815260200190815260200160002060009054906101000a900460ff16905092915050565b6113ba611939565b600073ffffffffffffffffffffffffffffffffffffffff168173ffffffffffffffffffffffffffffffffffffffff1603611429576040517f08c379a0000000000000000000000000000000000000000000000000000000008152600401611420906135e2565b60405180910390fd5b611432816119f4565b50565b60007f01ffc9a7000000000000000000000000000000000000000000000000000000007bffffffffffffffffffffffffffffffffffffffffffffffffffffffff1916827bffffffffffffffffffffffffffffffffffffffffffffffffffffffff1916149050919050565b6114a881611c82565b6114e7576040517f08c379a00000000000000000000000000000000000000000000000000000000081526004016114de90612c7a565b60405180910390fd5b50565b600033905090565b816004600083815260200190815260200160002060006101000a81548173ffffffffffffffffffffffffffffffffffffffff021916908373ffffffffffffffffffffffffffffffffffffffff160217905550808273ffffffffffffffffffffffffffffffffffffffff1661156583610b02565b73ffffffffffffffffffffffffffffffffffffffff167f8c5be1e5ebec7d5bd14f71427d1e84f3dd0314c0f7b2291e5b200ac8c7c3b92560405160405180910390a45050565b6000806115b783610b02565b90508073ffffffffffffffffffffffffffffffffffffffff168473ffffffffffffffffffffffffffffffffffffffff1614806115f957506115f8818561131e565b5b8061163757508373ffffffffffffffffffffffffffffffffffffffff1661161f84610570565b73ffffffffffffffffffffffffffffffffffffffff16145b91505092915050565b8273ffffffffffffffffffffffffffffffffffffffff1661166082610b02565b73ffffffffffffffffffffffffffffffffffffffff16146116b6576040517f08c379a00000000000000000000000000000000000000000000000000000000081526004016116ad90613674565b60405180910390fd5b600073ffffffffffffffffffffffffffffffffffffffff168273ffffffffffffffffffffffffffffffffffffffff1603611725576040517f08c379a000000000000000000000000000000000000000000000000000000000815260040161171c90613706565b60405180910390fd5b6117328383836001611ce1565b8273ffffffffffffffffffffffffffffffffffffffff1661175282610b02565b73ffffffffffffffffffffffffffffffffffffffff16146117a8576040517f08c379a000000000000000000000000000000000000000000000000000000000815260040161179f90613674565b60405180910390fd5b6004600082815260200190815260200160002060006101000a81549073ffffffffffffffffffffffffffffffffffffffff02191690556001600360008573ffffffffffffffffffffffffffffffffffffffff1673ffffffffffffffffffffffffffffffffffffffff168152602001908152602001600020600082825403925050819055506001600360008473ffffffffffffffffffffffffffffffffffffffff1673ffffffffffffffffffffffffffffffffffffffff16815260200190815260200160002060008282540192505081905550816002600083815260200190815260200160002060006101000a81548173ffffffffffffffffffffffffffffffffffffffff021916908373ffffffffffffffffffffffffffffffffffffffff160217905550808273ffffffffffffffffffffffffffffffffffffffff168473ffffffffffffffffffffffffffffffffffffffff167fddf252ad1be2c89b69c2b068fc378daa952ba7f163c4a11628f55a4df523b3ef60405160405180910390a46119348383836001611ce7565b505050565b6119416114ea565b73ffffffffffffffffffffffffffffffffffffffff1661195f610c53565b73ffffffffffffffffffffffffffffffffffffffff16146119b5576040517f08c379a00000000000000000000000000000000000000000000000000000000081526004016119ac90613772565b60405180910390fd5b565b60006002600083815260200190815260200160002060009054906101000a900473ffffffffffffffffffffffffffffffffffffffff169050919050565b6000600660009054906101000a900473ffffffffffffffffffffffffffffffffffffffff16905081600660006101000a81548173ffffffffffffffffffffffffffffffffffffffff021916908373ffffffffffffffffffffffffffffffffffffffff1602179055508173ffffffffffffffffffffffffffffffffffffffff168173ffffffffffffffffffffffffffffffffffffffff167f8be0079c531659141344cd1fd0a4f28419497f9722a3daafe3b4186f6b6457e060405160405180910390a35050565b8173ffffffffffffffffffffffffffffffffffffffff168373ffffffffffffffffffffffffffffffffffffffff1603611b28576040517f08c379a0000000000000000000000000000000000000000000000000000000008152600401611b1f906137de565b60405180910390fd5b80600560008573ffffffffffffffffffffffffffffffffffffffff1673ffffffffffffffffffffffffffffffffffffffff16815260200190815260200160002060008473ffffffffffffffffffffffffffffffffffffffff1673ffffffffffffffffffffffffffffffffffffffff16815260200190815260200160002060006101000a81548160ff0219169083151502179055508173ffffffffffffffffffffffffffffffffffffffff168373ffffffffffffffffffffffffffffffffffffffff167f17307eab39ab6107e8899845ad3d59bd9653f200f220920489ca2b5937696c3183604051611c1991906121c3565b60405180910390a3505050565b611c31848484611640565b611c3d84848484611ced565b611c7c576040517f08c379a0000000000000000000000000000000000000000000000000000000008152600401611c7390613870565b60405180910390fd5b50505050565b60008073ffffffffffffffffffffffffffffffffffffffff16611ca4836119b7565b73ffffffffffffffffffffffffffffffffffffffff1614159050919050565b611cdd828260405180602001604052806000815250611e74565b5050565b50505050565b50505050565b6000611d0e8473ffffffffffffffffffffffffffffffffffffffff16611ecf565b15611e67578373ffffffffffffffffffffffffffffffffffffffff1663150b7a02611d376114ea565b8786866040518563ffffffff1660e01b8152600401611d5994939291906138e5565b6020604051808303816000875af1925050508015611d9557506040513d601f19601f82011682018060405250810190611d929190613946565b60015b611e17573d8060008114611dc5576040519150601f19603f3d011682016040523d82523d6000602084013e611dca565b606091505b506000815103611e0f576040517f08c379a0000000000000000000000000000000000000000000000000000000008152600401611e0690613870565b60405180910390fd5b805181602001fd5b63150b7a0260e01b7bffffffffffffffffffffffffffffffffffffffffffffffffffffffff1916817bffffffffffffffffffffffffffffffffffffffffffffffffffffffff191614915050611e6c565b600190505b949350505050565b611e7e8383611ef2565b611e8b6000848484611ced565b611eca576040517f08c379a0000000000000000000000000000000000000000000000000000000008152600401611ec190613870565b60405180910390fd5b505050565b6000808273ffffffffffffffffffffffffffffffffffffffff163b119050919050565b600073ffffffffffffffffffffffffffffffffffffffff168273ffffffffffffffffffffffffffffffffffffffff1603611f61576040517f08c379a0000000000000000000000000000000000000000000000000000000008152600401611f58906139bf565b60405180910390fd5b611f6a81611c82565b15611faa576040517f08c379a0000000000000000000000000000000000000000000000000000000008152600401611fa190613a2b565b60405180910390fd5b611fb8600083836001611ce1565b611fc181611c82565b15612001576040517f08c379a0000000000000000000000000000000000000000000000000000000008152600401611ff890613a2b565b60405180910390fd5b6001600360008473ffffffffffffffffffffffffffffffffffffffff1673ffffffffffffffffffffffffffffffffffffffff16815260200190815260200160002060008282540192505081905550816002600083815260200190815260200160002060006101000a81548173ffffffffffffffffffffffffffffffffffffffff021916908373ffffffffffffffffffffffffffffffffffffffff160217905550808273ffffffffffffffffffffffffffffffffffffffff16600073ffffffffffffffffffffffffffffffffffffffff167fddf252ad1be2c89b69c2b068fc378daa952ba7f163c4a11628f55a4df523b3ef60405160405180910390a461210b600083836001611ce7565b5050565b6000604051905090565b600080fd5b600080fd5b60007fffffffff0000000000000000000000000000000000000000000000000000000082169050919050565b61215881612123565b811461216357600080fd5b50565b6000813590506121758161214f565b92915050565b60006020828403121561219157612190612119565b5b600061219f84828501612166565b91505092915050565b60008115159050919050565b6121bd816121a8565b82525050565b60006020820190506121d860008301846121b4565b92915050565b600081519050919050565b600082825260208201905092915050565b60005b838110156122185780820151818401526020810190506121fd565b60008484015250505050565b6000601f19601f8301169050919050565b6000612240826121de565b61224a81856121e9565b935061225a8185602086016121fa565b61226381612224565b840191505092915050565b600060208201905081810360008301526122888184612235565b905092915050565b6000819050919050565b6122a381612290565b81146122ae57600080fd5b50565b6000813590506122c08161229a565b92915050565b6000602082840312156122dc576122db612119565b5b60006122ea848285016122b1565b91505092915050565b600073ffffffffffffffffffffffffffffffffffffffff82169050919050565b600061231e826122f3565b9050919050565b61232e81612313565b82525050565b60006020820190506123496000830184612325565b92915050565b61235881612313565b811461236357600080fd5b50565b6000813590506123758161234f565b92915050565b6000806040838503121561239257612391612119565b5b60006123a085828601612366565b92505060206123b1858286016122b1565b9150509250929050565b6000806000606084860312156123d4576123d3612119565b5b60006123e286828701612366565b93505060206123f386828701612366565b9250506040612404868287016122b1565b9150509250925092565b61241781612290565b82525050565b600060a082019050612432600083018861240e565b81810360208301526124448187612235565b905081810360408301526124588186612235565b9050612467606083018561240e565b81810360808301526124798184612235565b90509695505050505050565b60006020828403121561249b5761249a612119565b5b60006124a984828501612366565b91505092915050565b60006020820190506124c7600083018461240e565b92915050565b6124d6816121a8565b81146124e157600080fd5b50565b6000813590506124f3816124cd565b92915050565b600080604083850312156125105761250f612119565b5b600061251e85828601612366565b925050602061252f858286016124e4565b9150509250929050565b600080fd5b600080fd5b7f4e487b7100000000000000000000000000000000000000000000000000000000600052604160045260246000fd5b61257b82612224565b810181811067ffffffffffffffff8211171561259a57612599612543565b5b80604052505050565b60006125ad61210f565b90506125b98282612572565b919050565b600067ffffffffffffffff8211156125d9576125d8612543565b5b6125e282612224565b9050602081019050919050565b82818337600083830152505050565b600061261161260c846125be565b6125a3565b90508281526020810184848401111561262d5761262c61253e565b5b6126388482856125ef565b509392505050565b600082601f83011261265557612654612539565b5b81356126658482602086016125fe565b91505092915050565b6000806000806080858703121561268857612687612119565b5b600061269687828801612366565b94505060206126a787828801612366565b93505060406126b8878288016122b1565b925050606085013567ffffffffffffffff8111156126d9576126d861211e565b5b6126e587828801612640565b91505092959194509250565b600080fd5b600080fd5b60008083601f84011261271157612710612539565b5b8235905067ffffffffffffffff81111561272e5761272d6126f1565b5b60208301915083600182028301111561274a576127496126f6565b5b9250929050565b60008060008060008060008060a0898b03121561277157612770612119565b5b600061277f8b828c01612366565b98505060206127908b828c016122b1565b975050604089013567ffffffffffffffff8111156127b1576127b061211e565b5b6127bd8b828c016126fb565b9650965050606089013567ffffffffffffffff8111156127e0576127df61211e565b5b6127ec8b828c016126fb565b9450945050608089013567ffffffffffffffff81111561280f5761280e61211e565b5b61281b8b828c016126fb565b92509250509295985092959890939650565b6000806040838503121561284457612843612119565b5b600061285285828601612366565b925050602061286385828601612366565b9150509250929050565b7f4e487b7100000000000000000000000000000000000000000000000000000000600052602260045260246000fd5b600060028204905060018216806128b457607f821691505b6020821081036128c7576128c661286d565b5b50919050565b7f4552433732313a20617070726f76616c20746f2063757272656e74206f776e6560008201527f7200000000000000000000000000000000000000000000000000000000000000602082015250565b60006129296021836121e9565b9150612934826128cd565b604082019050919050565b600060208201905081810360008301526129588161291c565b9050919050565b7f4552433732313a20617070726f76652063616c6c6572206973206e6f7420746f60008201527f6b656e206f776e6572206f7220617070726f76656420666f7220616c6c000000602082015250565b60006129bb603d836121e9565b91506129c68261295f565b604082019050919050565b600060208201905081810360008301526129ea816129ae565b9050919050565b7f4552433732313a2063616c6c6572206973206e6f7420746f6b656e206f776e6560008201527f72206f7220617070726f76656400000000000000000000000000000000000000602082015250565b6000612a4d602d836121e9565b9150612a58826129f1565b604082019050919050565b60006020820190508181036000830152612a7c81612a40565b9050919050565b7f437573746f20706f7220686f7261206465766520736572206d61696f7220717560008201527f65207a65726f0000000000000000000000000000000000000000000000000000602082015250565b6000612adf6026836121e9565b9150612aea82612a83565b604082019050919050565b60006020820190508181036000830152612b0e81612ad2565b9050919050565b600081519050612b248161229a565b92915050565b600060208284031215612b4057612b3f612119565b5b6000612b4e84828501612b15565b91505092915050565b7f4e656e68756d20746f6b656e2045524332302070617261207361636172000000600082015250565b6000612b8d601d836121e9565b9150612b9882612b57565b602082019050919050565b60006020820190508181036000830152612bbc81612b80565b9050919050565b6000604082019050612bd86000830185612325565b612be5602083018461240e565b9392505050565b600081519050612bfb816124cd565b92915050565b600060208284031215612c1757612c16612119565b5b6000612c2584828501612bec565b91505092915050565b7f4552433732313a20696e76616c696420746f6b656e2049440000000000000000600082015250565b6000612c646018836121e9565b9150612c6f82612c2e565b602082019050919050565b60006020820190508181036000830152612c9381612c57565b9050919050565b7f4552433732313a2061646472657373207a65726f206973206e6f74206120766160008201527f6c6964206f776e65720000000000000000000000000000000000000000000000602082015250565b6000612cf66029836121e9565b9150612d0182612c9a565b604082019050919050565b60006020820190508181036000830152612d2581612ce9565b9050919050565b7f55524920717565727920666f72206e6f6e6578697374656e7420746f6b656e00600082015250565b6000612d62601f836121e9565b9150612d6d82612d2c565b602082019050919050565b60006020820190508181036000830152612d9181612d55565b9050919050565b600081905092915050565b7f697066733a2f2f00000000000000000000000000000000000000000000000000600082015250565b6000612dd9600783612d98565b9150612de482612da3565b600782019050919050565b60008190508160005260206000209050919050565b60008154612e118161289c565b612e1b8186612d98565b94506001821660008114612e365760018114612e4b57612e7e565b60ff1983168652811515820286019350612e7e565b612e5485612def565b60005b83811015612e7657815481890152600182019150602081019050612e57565b838801955050505b50505092915050565b6000612e9282612dcc565b9150612e9e8284612e04565b915081905092915050565b7f456e64657265636f20646f2064657374696e61746172696f20696e76616c696460008201527f6f00000000000000000000000000000000000000000000000000000000000000602082015250565b6000612f056021836121e9565b9150612f1082612ea9565b604082019050919050565b60006020820190508181036000830152612f3481612ef8565b9050919050565b7f4e756d65726f20646520686f726173206465766520736572206d61696f72207160008201527f7565207a65726f00000000000000000000000000000000000000000000000000602082015250565b6000612f976027836121e9565b9150612fa282612f3b565b604082019050919050565b60006020820190508181036000830152612fc681612f8a565b9050919050565b7f4e6f6d6520646120617469766964616465206e616f20706f646520736572207660008201527f617a696f00000000000000000000000000000000000000000000000000000000602082015250565b60006130296024836121e9565b915061303482612fcd565b604082019050919050565b600060208201905081810360008301526130588161301c565b9050919050565b7f486173682049504653206e616f20706f6465207365722076617a696f00000000600082015250565b6000613095601c836121e9565b91506130a08261305f565b602082019050919050565b600060208201905081810360008301526130c481613088565b9050919050565b7f4e487b7100000000000000000000000000000000000000000000000000000000600052601160045260246000fd5b600061310582612290565b915061311083612290565b925082820261311e81612290565b91508282048414831517613135576131346130cb565b5b5092915050565b7f53616c646f20696e737566696369656e746520646520746f6b656e73206e6f2060008201527f636f6e747261746f207061726120636f62726972206f20637573746f00000000602082015250565b6000613198603c836121e9565b91506131a38261313c565b604082019050919050565b600060208201905081810360008301526131c78161318b565b9050919050565b7f46616c686120616f207472616e73666572697220746f6b656e7320706172612060008201527f6f20646f6e6f20646f20636f6e747261746f0000000000000000000000000000602082015250565b600061322a6032836121e9565b9150613235826131ce565b604082019050919050565b600060208201905081810360008301526132598161321d565b9050919050565b600061326b82612290565b91507fffffffffffffffffffffffffffffffffffffffffffffffffffffffffffffffff820361329d5761329c6130cb565b5b600182019050919050565b60006020601f8301049050919050565b600082821b905092915050565b6000600883026132f57fffffffffffffffffffffffffffffffffffffffffffffffffffffffffffffffff826132b8565b6132ff86836132b8565b95508019841693508086168417925050509392505050565b6000819050919050565b600061333c61333761333284612290565b613317565b612290565b9050919050565b6000819050919050565b61335683613321565b61336a61336282613343565b8484546132c5565b825550505050565b600090565b61337f613372565b61338a81848461334d565b505050565b5b818110156133ae576133a3600082613377565b600181019050613390565b5050565b601f8211156133f3576133c481612def565b6133cd846132a8565b810160208510156133dc578190505b6133f06133e8856132a8565b83018261338f565b50505b505050565b600082821c905092915050565b6000613416600019846008026133f8565b1980831691505092915050565b600061342f8383613405565b9150826002028217905092915050565b613448826121de565b67ffffffffffffffff81111561346157613460612543565b5b61346b825461289c565b6134768282856133b2565b600060209050601f8311600181146134a95760008415613497578287015190505b6134a18582613423565b865550613509565b601f1984166134b786612def565b60005b828110156134df578489015182556001820191506020850194506020810190506134ba565b868310156134fc57848901516134f8601f891682613405565b8355505b6001600288020188555050505b505050505050565b600061351d83856121e9565b935061352a8385846125ef565b61353383612224565b840190509392505050565b6000604082019050613553600083018661240e565b8181036020830152613566818486613511565b9050949350505050565b7f4f776e61626c653a206e6577206f776e657220697320746865207a65726f206160008201527f6464726573730000000000000000000000000000000000000000000000000000602082015250565b60006135cc6026836121e9565b91506135d782613570565b604082019050919050565b600060208201905081810360008301526135fb816135bf565b9050919050565b7f4552433732313a207472616e736665722066726f6d20696e636f72726563742060008201527f6f776e6572000000000000000000000000000000000000000000000000000000602082015250565b600061365e6025836121e9565b915061366982613602565b604082019050919050565b6000602082019050818103600083015261368d81613651565b9050919050565b7f4552433732313a207472616e7366657220746f20746865207a65726f2061646460008201527f7265737300000000000000000000000000000000000000000000000000000000602082015250565b60006136f06024836121e9565b91506136fb82613694565b604082019050919050565b6000602082019050818103600083015261371f816136e3565b9050919050565b7f4f776e61626c653a2063616c6c6572206973206e6f7420746865206f776e6572600082015250565b600061375c6020836121e9565b915061376782613726565b602082019050919050565b6000602082019050818103600083015261378b8161374f565b9050919050565b7f4552433732313a20617070726f766520746f2063616c6c657200000000000000600082015250565b60006137c86019836121e9565b91506137d382613792565b602082019050919050565b600060208201905081810360008301526137f7816137bb565b9050919050565b7f4552433732313a207472616e7366657220746f206e6f6e20455243373231526560008201527f63656976657220696d706c656d656e7465720000000000000000000000000000602082015250565b600061385a6032836121e9565b9150613865826137fe565b604082019050919050565b600060208201905081810360008301526138898161384d565b9050919050565b600081519050919050565b600082825260208201905092915050565b60006138b782613890565b6138c1818561389b565b93506138d18185602086016121fa565b6138da81612224565b840191505092915050565b60006080820190506138fa6000830187612325565b6139076020830186612325565b613914604083018561240e565b818103606083015261392681846138ac565b905095945050505050565b6000815190506139408161214f565b92915050565b60006020828403121561395c5761395b612119565b5b600061396a84828501613931565b91505092915050565b7f4552433732313a206d696e7420746f20746865207a65726f2061646472657373600082015250565b60006139a96020836121e9565b91506139b482613973565b602082019050919050565b600060208201905081810360008301526139d88161399c565b9050919050565b7f4552433732313a20746f6b656e20616c7265616479206d696e74656400000000600082015250565b6000613a15601c836121e9565b9150613a20826139df565b602082019050919050565b60006020820190508181036000830152613a4481613a08565b905091905056fea26469706673582212201ebf4c64cf43ae2063f3a1be6ca2566d4f2001c21158214da4337c3fc928803364736f6c63430008140033",
  "linkReferences": {},
  "deployedLinkReferences": {}
}